:040000000BEF00F012
:100008003582FACF0FF0FBCF10F00DED00F064EF62
:1000180001F00600E9CF11F0EACF12F0E1CF13F0BA
:10002800E2CF14F0D9CF15F0DACF16F0F3CF17F0EE
:10003800F4CF18F0F6CF19F0F7CF1AF0F8CF1BF07D
:10004800F5CF1CF09EA070D0DE0ECE24CE6E0B0E27
:10005800CF20CF6E314A322A510E31183210D8A42F
:1000680062D0334A342A000E326E000E316E33C02D
:1000780009F034C00AF0000E0C6E0A0E0B6EF8EC94
:1000880000F0230E0924D96E000E0A20DA6EDF5024
:10009800306E000E046E0A0E036E33C001F034C0D9
:1000A80002F0B6EC00F001C009F002C00AF0000E40
:1000B8000C6E0A0E0B6EF8EC00F0230E0924D96EB4
:1000C800000E0A20DA6EDF502F6E000E046E640EEA
:1000D800036E33C001F034C002F0B6EC00F001C08A
:1000E80009F002C00AF0000E0C6E0A0E0B6EF8EC56
:1000F80000F0230E0924D96E000E0A20DA6EDF50B4
:100108002E6E33C001F034C002F0030E046EE80E08
:10011800036EB6EC00F0230E0124D96E000E022007
:10012800DA6EDF502D6E9E901CC0F5FF1BC0F8FFE5
:100138001AC0F7FF19C0F6FF18C0F4FF17C0F3FF85
:1001480016C0DAFF15C0D9FF14C0E2FF13C0E1FFE3
:1001580012C0EAFF11C0E9FF10C0FBFF0FC0FAFF91
:1001680035921100000E066E04AE06D0036C041E14
:10017800D8B0042A010E066E02AE06D0016C021E2B
:10018800D8B0022A010E061A000E086E000E076E7D
:1001980003500410D8B41CD0010E056E04D0D890BA
:1001A80003360436052A04AEFAD7D890073608363F
:1001B8000350015C04500258D8A005D00350015EDA
:1001C8000450025A0780D89004320332052EEDD726
:1001D8000650D8B404D0076C081ED8B0082A07C047
:1001E80001F008C002F01200000E0E6E0AAE06D032
:1001F800096C0A1ED8B00A2A010E0E6E0CAE04D085
:100208000B6C0C1ED8B00C2A0B500C10D8B418D09C
:10021800010E0D6E04D0D8900B360C360D2A0CAE9C
:10022800FAD70B50095C0C500A58D8A004D00B50D0
:10023800095E0C500A5AD8900C320B320D2EF1D7A9
:100248000E50D8B404D0096C0A1ED8B00A2A09C0C6
:1002580009F00AC00AF012008CEC01F0000E226EC0
:10026800000E216E22BE06D02250F8E1040E215C59
:10027800D8B0F4D72D0E2124D96E000E2220DA6EC4
:10028800DF50836E21C01DF0010E1E6E1D2A02D0A4
:10029800D8901E361D2EFCD78050F00B1E10806E95
:1002A800000E206E000E1F6EE80E1F5C030E205815
:1002B800D8B003D01F4A202AF7D7214A222AD2D7FA
:1002C80000EE2DF0080EEE6AE806FDE12E0EF66E41
:1002D800030EF76E000EF86E00EE23F010EE0AF033
:1002E8000900F5CFEEFFE550E150FAE1359035927F
:1002F800000130EF01F0F28EF28C9D809E90CD804F
:10030800CD92CD8E0B0ECF6EDC0ECE6ECD9612003A
:10031800000E956E9250F00B926E8050F00B806E2E
:100328007FEC01F01200E721CB6B2D6EEE23EF6F0F
:00000001FF
