:04000000ACEF03F06E
:1006000000737769746368203120697320707265A4
:10061000737365642000737769746368203220699E
:1006200073207072657373656420007377697463F7
:1006300068203320697320707265737365642000CD
:1006400073776974636820342069732070726573EE
:10065000736564200000C2EC03F0010E5DEC03F052
:10066000046E0E0E0418D8A407D0010E026E060EFA
:10067000036E97EC03F0F1D70D0E0418D8A407D041
:10068000160E026E060E036E97EC03F0E6D70B0E05
:100690000418D8A407D02B0E026E060E036E97EC3A
:1006A00003F0DBD7070E0418D8A4D7D7400E026E8C
:1006B000060E036E97EC03F0D0D7016E0104D8A4A8
:1006C00015D082500F0B0F0AD8B408D00550D8B4FB
:1006D00005D0000E056E82500F0B120082500F0BDA
:1006E0000F0AD8A406D0010E056E03D00150D8B46D
:1006F000F2D7FF0E120094500F09946E9D889E98B9
:10070000949C948EAC90AC8AAC98AC86AC82AC8451
:10071000AB8EAB9CAB9AAB88AB94AB92AB90B89ED4
:10072000B88CB898B896B8909D8A9E9A12000AD054
:1007300002C0F6FF03C0F7FF0800F550BCEC03F061
:10074000024A032A02C0F6FF03C0F7FF0800F55073
:100750000009D8B41200ECD78A0EF66E070EF76EB9
:10076000000EF86E0900F5CF05F0000EF86E060ECB
:10077000F76E00012BEF03F0016E9EA8FED701C0BB
:0B078000ADFF12007BEC03F012000143
:00000001FF
