:04000000D9EF16F02E
:102D8E008250010B1200E721CB6B2D6EEE23EF6FFD
:102D9E00000E956E9250F00B926E94808350F00B55
:102DAE00836E1200216A206A1F6A1E6A940EF66EE6
:102DBE002D0EF76E000EF86E00EE14F010EE0AF007
:102DCE000900F5CFEEFFE550E150FAE100016DEF9D
:102DDE0017F00A500B10D8B418D0010E0C6E04D098
:102DEE00D8900A360B360C2A0BAEFAD70A50085C6E
:102DFE000B500958D8A004D00A50085E0B50095A3F
:102E0E00D8900B320A320C2EF1D708C008F009C048
:102E1E0009F01200000E066E000E056E035004102F
:102E2E00D8B41CD0010E076E04D0D89003360436E9
:102E3E00072A04AEFAD7D890053606360350015C41
:102E4E0004500258D8A005D00350015E0450025A17
:102E5E000580D89004320332072EEDD705C001F05D
:102E6E0006C002F01200000E086E000E076E08BEBD
:102E7E0006D008502AE1040E075CD8B012000750A5
:102E8E000124D96E08500220DA6EDF50836E07C01F
:102E9E0003F0010E046E032A02D0D8900436032EDE
:102EAE00FCD78350F00B0410806E000E066E000EE1
:102EBE00056EE80E055C030E0658D8B003D0054A21
:102ECE00062AF7D7074A082AD2D71200CFEC16F0F7
:102EDE00000E0E6E000E0D6E000E116E000E106EB8
:102EEE00000E136E000E126EC7EC16F00F6E0F5022
:102EFE00D8A40CD0104A112AC80E10181110D8A43C
:102F0E0015D0000E136E000E126E10D01050111050
:102F1E00D8B408D0115006E1C80E105CD8B002D05B
:102F2E00124A132A000E116E000E106E12C008F017
:102F3E0013C009F0000E0B6E0A0E0A6EF0EC16F0BE
:102F4E00140E0824D96E000E0920DA6EDF50216EA1
:102F5E00000E046E0A0E036E12C001F013C002F0D2
:102F6E0011EC17F001C008F002C009F0000E0B6E54
:102F7E000A0E0A6EF0EC16F0140E0824D96E000E2E
:102F8E000920DA6EDF50206E000E046E640E036EA2
:102F9E0012C001F013C002F011EC17F001C008F0DE
:102FAE0002C009F0000E0B6E0A0E0A6EF0EC16F05F
:102FBE00140E0824D96E000E0920DA6EDF501F6E33
:102FCE0012C001F013C002F0030E046EE80E036E81
:102FDE0011EC17F0140E0124D96E000E0220DA6ED9
:102FEE00DF501E6E1E0E016E000E026E3AEC17F0D2
:022FFE007BD77F
:00000001FF
