:04000000E8EF16F01F
:102DB000000E956E9250F00B926E000E836E120014
:102DC000E721CB6B2D6EEE23EF6F4040E803000050
:102DD00000EE1AF0080EEE6AE806FDE1C00EF66E8F
:102DE0002D0EF76E000EF86E00EE01F010EE10F0F2
:102DF0000900F5CFEEFFE550E150FAE1000167EF81
:102E000017F01550161017101810D8B424D0010E52
:102E1000196E06D0D8901536163617361836192A78
:102E200018AEF8D71550115C165012581750135899
:102E300018501458D8A008D01550115E1650125AC8
:102E40001750135A1850145AD89018321732163295
:102E50001532192EE7D711C011F012C012F013C0AD
:102E600013F014C014F01200000E186E000E176E4E
:102E700018BE06D018502AE1040E175CD8B0120014
:102E800017501124D96E18501220DA6EDF50836E5D
:102E900017C013F0010E146E132A02D0D890143606
:102EA000132EFCD78050F00B1410806E000E166E9F
:102EB000000E156EE80E155C030E1658D8B003D040
:102EC000154A162AF7D7174A182AD2D71200D8EC73
:102ED00016F00D06000E0E5A0F5A105A0D2815E165
:102EE0000E2813E10F2811E11028D8A40ED0010EEE
:102EF0001A26000E1B221C221D22E80E0D6E030E48
:102F00000E6E000E0F6E000E106E1AC011F01BC078
:102F100012F01CC013F01DC014F00C0E156E000E44
:102F2000166E000E176E000E186E01EC17F0010EF3
:102F30001124D96E000E1220DA6EDF501E6E010EC3
:102F40001A24116E000E1B20126E000E1C20136E30
:102F5000000E1D20146E0C0E156E000E166E000E67
:102F6000176E000E186E01EC17F0010E1124D96EC9
:102F7000000E1220DA6EDF501F6E020E1A24116E40
:102F8000000E1B20126E000E1C20136E000E1D2062
:102F9000146E0C0E156E000E166E000E176E000EDF
:102FA000186E01EC17F0010E1124D96E000E1220DC
:102FB000DA6EDF50206E030E1A24116E000E1B20F5
:102FC000126E000E1C20136E000E1D20146E0C0ECF
:102FD000156E000E166E000E176E000E186E01ECC8
:102FE00017F0010E1124D96E000E1220DA6EDF5098
:102FF000216E1E0E116E000E126E34EC17F069D7A2
:00000001FF
