:040000000BEF00F012
:100008003F82FACF11F0FBCF12F00DED00F06DEF4B
:1000180001F00600E9CF13F0EACF14F0E1CF15F0B4
:10002800E2CF16F0D9CF17F0DACF18F0F3CF19F0E6
:10003800F4CF1AF0F6CF1BF0F7CF1CF0F8CF1DF075
:10004800F5CF1EF020EE31F010EE1FF0090EDBCFD9
:10005800E3FFE806FCE2F2A4A4D0080ED624D66E8C
:10006800000ED720D76E3B4A3C2A210E3B1803E1ED
:100078004E0E3C18D8A494D03D4A3E2A000E3C6E41
:10008800000E3B6E3DC009F03EC00AF0000E0C6E3B
:100098000A0E0B6E35EC01F01F0E0924D96E000E06
:1000A8000A20DA6EDF502C6E000E046E0A0E036E04
:1000B8003DC001F03EC002F0F3EC00F001C009F0D1
:1000C80002C00AF0000E0C6E0A0E0B6E35EC01F041
:1000D8001F0E0924D96E000E0A20DA6EDF502B6E2F
:1000E800000E046E640E036E3DC001F03EC002F0C7
:1000F800F3EC00F001C009F002C00AF0000E0C6E2B
:100108000A0E0B6E35EC01F01F0E0924D96E000E95
:100118000A20DA6EDF502A6E3DC001F03EC002F0C0
:10012800030E046EE80E036EF3EC00F01F0E0124BC
:10013800D96E000E0220DA6EDF50296E000E306E86
:10014800000E2F6E30BE06D030502AE1040E2F5C10
:10015800D8B026D0290E2F24D96E000E3020DA6EA2
:10016800DF50836E2FC00FF0010E106E0F2A02D0E1
:10017800D89010360F2EFCD78050F00B1010806EE0
:10018800000E2E6E000E2D6EE80E2D5C030E2E58FE
:10019800D8B003D02D4A2E2AF7D72F4A302AD2D7E3
:1001A800F2941EC0F5FF1DC0F8FF1CC0F7FF1BC06E
:1001B800F6FF1AC0F4FF19C0F3FF18C0DAFF17C022
:1001C800D9FF16C0E2FF15C0E1FF14C0EAFF13C053
:1001D800E9FF12C0FBFF11C0FAFF3F921100000EA9
:1001E800066E04AE06D0036C041ED8B0042A010EB5
:1001F800066E02AE06D0016C021ED8B0022A010EAD
:10020800061A000E086E000E076E03500410D8B4CC
:100218001CD0010E056E04D0D89003360436052A8A
:1002280004AEFAD7D890073608360350015C04505C
:100238000258D8A005D00350015E0450025A078026
:10024800D89004320332052EEDD70650D8B404D026
:10025800076C081ED8B0082A07C001F008C002F0D1
:100268001200000E0E6E0AAE06D0096C0A1ED8B037
:100278000A2A010E0E6E0CAE04D00B6C0C1ED8B000
:100288000C2A0B500C10D8B418D0010E0D6E04D0E7
:10029800D8900B360C360D2A0CAEFAD70B50095CE9
:1002A8000C500A58D8A004D00B50095E0C500A5ABA
:1002B800D8900C320B320D2EF1D70E50D8B404D092
:1002C800096C0A1ED8B00A2A09C009F00AC00AF047
:1002D80012003E6A3D6A3C6A3B6A3C0EF66E030EAB
:1002E800F76E000EF86E00EE31F010EE0AF009001D
:1002F800F5CFEEFFE550E150FAE13F903F92000163
:10030800A3EF01F0F28EF28CF28AF294D58ED58C9E
:10031800D59AD586000ED76E060ED66E1200000E40
:10032800956E9250F00B926E8050F00B806E86ECBA
:1003380001F01200E721CB6B2D6EEE23EF6F93ECEB
:0403480001F0FFD7EA
:00000001FF
