:040000000BEF00F012
:100008001582FACF01F0FBCF02F00DED00F09FEF63
:1000180000F00600E9CF03F0EACF04F0E1CF05F0E5
:10002800E2CF06F0D9CF07F0DACF08F0F3CF09F026
:10003800F4CF0AF0F6CF0BF0F7CF0CF0F8CF0DF0B5
:10004800F5CF0EF0F2A419D0080ED624D66E000E05
:10005800D720D76E0F4A102A210E0F180DE14E0E29
:100068001018D8A409D0000E106E000E0F6E81B0C3
:1000780002D0818001D08190F2949EA017D0DE0E2C
:10008800CE24CE6E0B0ECF20CF6E114A122A510EFF
:1000980011181210D8A409D081B202D0818201D0DF
:1000A8008192000E126E000E116E9E909EA216D0C6
:1000B800CC50080FCC6E134A142A210E13180DE1E8
:1000C8004E0E1418D8A409D081B402D0818401D06E
:1000D8008194000E146E000E136E9E920EC0F5FFF2
:1000E8000DC0F8FF0CC0F7FF0BC0F6FF0AC0F4FF05
:1000F80009C0F3FF08C0DAFF07C0D9FF06C0E2FF56
:1001080005C0E1FF04C0EAFF03C0E9FF02C0FBFF2E
:1001180001C0FAFF15921100F28C000E936E000ECA
:10012800816E0F0EC16EAAEC00F0B5EC00F0BFECCA
:1001380000F0F28E1200146A136A126A116A106AC9
:100148000F6A159015920001C5EF00F0D58EF29454
:10015800F28AD59AD58C000ED76E060ED66ED58645
:100168001200CD809E909D800B0ECF6EDC0ECE6E61
:10017800CD92CD861200CA849E929D82060ECC6EC8
:08018800120090EC00F0FFD71B
:00000001FF
