:040000000BEF00F012
:100008001182FACF01F0FBCF02F00DED00F071EF95
:1000180000F00600E9CF03F0EACF04F0E1CF05F0E5
:10002800E2CF06F0D9CF07F0DACF08F0F3CF09F026
:10003800F4CF0AF0F6CF0BF0F7CF0CF0F8CF0DF0B5
:10004800F5CF0EF0F2A415D0080ED624D66E000E09
:10005800D720D76E0F4A102A210E0F1809E14E0E2D
:100068001018D8A405D0811E000E106E000E0F6E59
:10007800F2940EC0F5FF0DC0F8FF0CC0F7FF0BC0DF
:10008800F6FF0AC0F4FF09C0F3FF08C0DAFF07C093
:10009800D9FF06C0E2FF05C0E1FF04C0EAFF03C0C4
:1000A800E9FF02C0FBFF01C0FAFF11921100F28EB6
:1000B800F28CF28AF294D58ED58CD59AD586000E1C
:1000C800D76E060ED66E12000F0EC16E000E936E1E
:1000D800000E816E5BEC00F01200106A0F6A11903E
:0E00E8001192000178EF00F068EC00F0FFD7F5
:00000001FF
