:040000007EEF17F088
:102ED400000E016E010E026E012A1200000E016E38
:102EE400010E026E012A1200000E936E94500F0917
:102EF400946E000E816E1200000EF66E300EF76EA8
:102F0400000EF86E0900F5CF04F00001DCEF17F0B5
:102F1400000E026E000E016E012A080E026003D03C
:102F2400D880813606D0100E026003D081508124EF
:102F3400816E022A000E016E1200026E0204D8A4F1
:102F440010D082CF01F00F0E0116D8B408D004506F
:102F5400D8B405D0000E046E82500F0B12000F0E71
:102F6400120082500F0B0F0AD8A41200010E046E37
:102F74001200000E026E000E016E012A080E02609D
:102F840003D0D880813612D0100E026003D0815055
:102F940081240BD0170E026003D0D880813206D072
:102FA4001F0E026003D0D8908130816E022A000E79
:102FB400016E120076EC17F0BBEC17F0010E9FECDB
:102FC40017F0036E0E0E0318D8A403D0BBEC17F051
:102FD400F5D70D0E0318D8A403D08AEC17F0EED75A
:102FE4000B0E0318D8A403D06AEC17F0E7D7070E2A
:0D2FF4000318D8A4E3D770EC17F0E0D70164
:00000001FF
