:04000000EBEF16F01C
:102DD00082500F0B12000001BEEF17F0000E936E31
:102DE00094500F09946E000E816E1200000E056E55
:102DF000000E016E000E026E000E036E000E046ED9
:102E0000010E0126000E02220322042204500310A8
:102E100006E1880E015C130E0258D8A00CD0080EF3
:102E2000056003D0D880813606D0100E056003D02F
:102E300081508124816E052A000E016E000E026E03
:102E4000000E036E000E046E1200000E056E000EE2
:102E5000066E000E076E000E086E010E096E05C0AC
:102E600001F006C002F007C003F008C004F0052A14
:102E7000000E0622072208220450031006E1500E1D
:102E8000015CC30E0258D8A012000904D8A404D0D3
:102E9000AA0E816E092A1200020E0918D8A4120087
:102EA000811E010E096E1200000E056E000E066EE8
:102EB000000E076E000E086E010E096E05C001F0CF
:102EC00006C002F007C003F008C004F0052A000E97
:102ED0000622072208220450031006E1500E015C6E
:102EE000C30E0258D8A012000904D8A404D0F00ED2
:102EF000816E092A1200020E0918D8A41200811E40
:102F0000010E096E1200000E056E000E016E000E1D
:102F1000026E000E036E000E046E010E0126000EFE
:102F20000222032204220450031006E1880E015CF1
:102F3000130E0258D8A01200080E056003D0D880E6
:102F4000813612D0100E056003D0815081240BD041
:102F5000170E056003D0D880813206D01F0E0560A1
:102F600003D0D8908130816E052A000E016E000ECC
:102F7000026E000E036E000E046E1200EEEC16F0F0
:102F8000000E0B6E83EC17F0010EE8EC16F00A6EE3
:102F90000E0E0A18D8A402D0010E05D00D0E0A1884
:102FA000D8A405D0020E0B6E000E816E0ED00B0E53
:102FB0000A18D8A402D0030E07D0070E0A18D8A406
:102FC00002D0040E01D0010E0B6E0B04D8A403D066
:102FD00083EC17F0D9D7020E0B18D8A403D0F6EC67
:102FE00016F0D2D7030E0B18D8A403D025EC17F097
:102FF000CBD7040E0B18D8A4C7D754EC17F0C4D7FE
:00000001FF
