:04000000EBEF16F01C
:102DC600000E936E94500F09946E000E816E1200E1
:102DD600000EF66E300EF76E000EF86E0900F5CF97
:102DE6000BF0000111EF17F0016E0104D8A41200D8
:102DF60082500F0B0F0AD8B408D00B50D8B405D0A8
:102E0600000E0B6E82500F0B120082500F0B0F0A32
:102E1600D8A402D0010E0B6E0F0E1200E3EC16F0D2
:102E2600C5EC17F0010EF7EC16F00A6E0E0E0A1836
:102E3600D8A403D0C5EC17F0F5D70D0E0A18D8A400
:102E460003D038EC17F0EED70B0E0A18D8A403D02F
:102E560067EC17F0E7D7070E0A18D8A403D096EC4C
:102E660017F0E0D7C5EC17F0DDD7000E056E000EA3
:102E7600016E000E026E000E036E000E046E010E51
:102E86000126000E0222032204220450031006E14A
:102E9600880E015C130E0258D8A00CD0080E0560EF
:102EA60003D0D880813606D0100E056003D081503D
:102EB6008124816E052A000E016E000E026E000E40
:102EC600036E000E046E1200000E056E000E066EF6
:102ED600000E076E000E086E010E096E05C001F0A9
:102EE60006C002F007C003F008C004F0052A000E71
:102EF6000622072208220450031006E1500E015C48
:102F0600C30E0258D8A012000904D8A404D0AA0EF1
:102F1600816E092A1200020E0918D8A41200811E19
:102F2600010E096E1200000E056E000E066E000EF2
:102F3600076E000E086E010E096E05C001F006C090
:102F460002F007C003F008C004F0052A000E0622AE
:102F5600072208220450031006E1500E015CC30E3E
:102F66000258D8A012000904D8A404D0F00E816E2D
:102F7600092A1200020E0918D8A41200811E010E99
:102F8600096E1200000E056E000E016E000E026E36
:102F9600000E036E000E046E010E0126000E0222C4
:102FA600032204220450031006E1880E015C130E6E
:102FB6000258D8A01200080E056003D0D8808136CA
:102FC60012D0100E056003D0815081240BD0170E4D
:102FD600056003D0D880813206D01F0E056003D06D
:102FE600D8908130816E052A000E016E000E026EA9
:0B2FF600000E036E000E046E120001BE
:00000001FF
