:040000000BEF00F012
:100008001E82FACF01F0FBCF02F00DED00F0C0EF39
:1000180000F00600E9CF03F0EACF04F0E1CF05F0E5
:10002800E2CF06F0D9CF07F0DACF08F0F3CF09F026
:10003800F4CF0AF0F6CF0BF0F7CF0CF0F8CF0DF0B5
:10004800F5CF0EF0F2B2F2920EC0F5FF0DC0F8FF38
:100058000CC0F7FF0BC0F6FF0AC0F4FF09C0F3FF9E
:1000680008C0DAFF07C0D9FF06C0E2FF05C0E1FFFC
:1000780004C0EAFF03C0E9FF02C0FBFF01C0FAFFAA
:100088001E921100000E166E000E156E16BE06D0DA
:1000980016502CE1040E155CD8B0120015500F2430
:1000A800D96E16501020DA6EDF50836E15C011F02D
:1000B800010E126E112A02D0D8901236112EFCD7DA
:1000C8008050F00B1210806E000E146E000E136E2E
:1000D80014BE06D0E80E135C030E1458D8B003D033
:1000E800134A142AF5D7154A162AD0D71200AAECB3
:1000F80000F0000E1D6E000E1C6E000E1B6E210E11
:10010800176ECB0E186E6B0E196E2D0E1A6E170E1B
:100118000F6E000E106E46EC00F01B4A1C2A650E8E
:100128001B181C10D8A40AD01D2A81B202D08182C3
:1001380001D08192000E1C6E000E1B6E050E1D185C
:10014800D8A4DDD7000E1D6E0300D9D7000E956E1A
:100158009250F00B926E8192938093928050F00BA4
:10016800806E000E836EBAEC00F01200F28EF28CF4
:10017800F292F288F19C12001E901E9200017BEF11
:0201880000F085
:00000001FF
