:04000000B4EF17F052
:102F68000001BCEF17F0000E936E000E816E120088
:102F7800B7EC17F0000E056E000E016E000E026E23
:102F8800000E036E000E046E010E0126000E0222D2
:102F9800032204220450031006E1500E015CC30E04
:102FA8000258D8A0F1D7080E056003D0D880813622
:102FB80019D0100E056004D081508124816E12D082
:102FC800170E056003D0D88081320CD0200E056022
:102FD80009D0D8908130816E1F0E0518D8A402D070
:102FE800000E056E000E016E000E026E000E036EDE
:082FF800000E046E052AC8D783
:00000001FF
