:04000000BBEF17F04B
:102F76000001C3EF17F0000E936E000E816E120073
:102F8600BEEC17F0000E056E000E016E000E026E0E
:102F9600000E036E000E046E010E0126000E0222C4
:102FA600032204220450031006E1500E015CC30EF6
:102FB6000258D8A0F1D7080E056003D0D880813614
:102FC60012D0100E056003D0815081240BD0170E4D
:102FD600056003D0D880813206D01F0E056003D06D
:102FE600D8908130816E000E016E000E026E000ECA
:0A2FF600036E000E046E052ACFD70B
:00000001FF
