:04000000C0EF17F046
:102F700094500F09946E000E936E000E816E120035
:102F8000000EF66E300EF76E000EF86E0900F5CFEB
:102F900005F00001E3EF17F0016E0150D8A403D053
:102FA00082500F0B12000104D8A405D0000E056E4C
:102FB00082500F0B120082500F0B0F0AD8A4120080
:102FC000010E056E1200B8EC17F0000E036E000E35
:102FD000026E000ECCEC17F0046E880E02180DE1A4
:102FE000130E0318D8A409D00F0E0418D8B405D0B6
:102FF000811E000E036E000E026E024A032AE9D7FC
:0130000001CE
:00000001FF
