:040000000BEF00F012
:100008003B82FACF01F0FBCF02F02EED01F0F7EFC3
:1000180001F01FEC02F039C017F03AC018F0000EDA
:100028001A6E0A0E196EBFEC01F02F0E1724D96E46
:10003800000E1820DA6EDF50246E000E126E0A0EC3
:10004800116E39C00FF03AC010F07DEC01F00FC00E
:1000580017F010C018F0000E1A6E0A0E196EBFECD9
:1000680001F02F0E1724D96E000E1820DA6EDF501B
:10007800236E29C017F02AC018F0000E1A6E0A0E57
:10008800196EBFEC01F02F0E1724D96E000E182040
:10009800DA6EDF50266E000E126E0A0E116E29C03F
:1000A8000FF02AC010F07DEC01F00FC017F010C05F
:1000B80018F0000E1A6E0A0E196EBFEC01F02F0E22
:1000C8001724D96E000E1820DA6EDF50256E000E48
:1000D800226E000E216E22BE06D022502AE1040EA6
:1000E800215CD8B026D0230E2124D96E000E222000
:1000F800DA6EDF50836E21C01DF0010E1E6E1D2AC0
:1001080002D0D8901E361D2EFCD78050F00B1E1042
:10011800806E000E206E000E1F6EE80E1F5C030E30
:100128002058D8B003D01F4A202AF7D7214A222ABC
:10013800D2D7020E27182810D8A464D0000E286E33
:10014800000E276E294A2A2A3C0E29182A10D8A4FC
:100158000FD0394A3A2A000E2A6E000E296E180E60
:1001680039183A10D8A404D0000E3A6E000E396E31
:10017800000E126E0A0E116E39C00FF03AC010F060
:100188007DEC01F00FC017F010C018F0000E1A6EC9
:100198000A0E196EBFEC01F02F0E1724D96E000E4F
:1001A8001820DA6EDF50236E29C017F02AC018F025
:1001B800000E1A6E0A0E196EBFEC01F02F0E1724EE
:1001C800D96E000E1820DA6EDF50266E000E126E01
:1001D8000A0E116E29C00FF02AC010F07DEC01F054
:1001E8000FC017F010C018F0000E1A6E0A0E196E24
:1001F800BFEC01F02F0E1724D96E000E1820DA6E0E
:10020800DF50256E27A013D039C017F03AC018F078
:10021800000E1A6E0A0E196EBFEC01F02F0E17248D
:10022800D96E000E1820DA6EDF50100911D039C0CF
:1002380017F03AC018F0000E1A6E0A0E196EBFECCD
:1002480001F02F0E1724D96E000E1820DA6EDF5039
:10025800246E3DD70600E9CF03F0EACF04F0E1CFE2
:1002680005F0E2CF06F0D9CF07F0DACF08F0F3CFE8
:1002780009F0F4CF0AF0F6CF0BF0F7CF0CF0F8CF77
:100288000DF0F5CF0EF0F2A416D0080ED624D66ED7
:10029800000ED720D76E2D4A2E2A110E2D180AE1EE
:1002A800270E2E18D8A406D0274A282A000E2E6E0C
:1002B800000E2D6EF2940EC0F5FF0DC0F8FF0CC0B5
:1002C800F7FF0BC0F6FF0AC0F4FF09C0F3FF08C030
:1002D800DAFF07C0D9FF06C0E2FF05C0E1FF04C08E
:1002E800EAFF03C0E9FF02C0FBFF01C0FAFF3B922F
:1002F8001100000E146E12AE06D0116C121ED8B08A
:10030800122A010E146E10AE06D00F6C101ED8B053
:10031800102A010E141A000E166E000E156E1150DA
:100328001210D8B41CD0010E136E04D0D890113618
:100338001236132A12AEFAD7D8901536163611503F
:100348000F5C12501058D8A005D011500F5E1250F3
:10035800105A1580D89012321132132EEDD714503E
:10036800D8B404D0156C161ED8B0162A15C00FF0D4
:1003780016C010F01200000E1C6E18AE06D0176CD6
:10038800181ED8B0182A010E1C6E1AAE04D0196CAB
:100398001A1ED8B01A2A19501A10D8B418D0010E3B
:1003A8001B6E04D0D89019361A361B2A1AAEFAD703
:1003B8001950175C1A501858D8A004D01950175E55
:1003C8001A50185AD8901A3219321B2EF1D71C50CD
:1003D800D8B404D0176C181ED8B0182A17C017F054
:1003E80018C018F0120000EE23F00C0EEE6AE806B2
:1003F800FDE1540EF66E040EF76E000EF86E00EE78
:100408002FF010EE0CF00900F5CFEEFFE550E150AB
:10041800FAE13B903B9200010DEF00F0F28EF28C76
:10042800F28AF294D58ED58CD59AD586000ED76EE1
:10043800060ED66E1200000E956E9250F00B926E5C
:100448008050F00B806E12EC02F01200E721CB6BAB
:080458002D6EEE23EF6F0C0086
:00000001FF
