:040000009EEF17F068
:102F2200E721CB6B6CB6EE23EF2F000E956E92501D
:102F3200F00B926E000E836E1200220EF66E2F0EB2
:102F4200F76E000EF86E00EE18F010EE0AF00900AF
:102F5200F5CFEEFFE550E150FAE10001B1EF17F0D5
:102F620096EC17F0050E136E20EE18F010EE09F035
:102F7200090EDBCFE3FFE806FCE28E0E146EE50ECF
:102F8200156EC60E166EAC0E176E140E016E000E86
:102F9200026ECDEC17F0F1D7000E086E000E076E30
:102FA20008BE06D008502AE1040E075CD8B0120011
:102FB20007500124D96E08500220DA6EDF50836E6A
:102FC20007C003F0010E046E032A02D0D890043623
:102FD200032EFCD78050F00B0410806E000E066E9C
:102FE200000E056EE80E055C030E0658D8B003D03D
:0E2FF200054A062AF7D7074A082AD2D7120046
:00000001FF
