:040000000BEF00F012
:100008001182FACF01F0FBCF02F00DED00F05CEFAA
:1000180000F00600E9CF03F0EACF04F0E1CF05F0E5
:10002800E2CF06F0D9CF07F0DACF08F0F3CF09F026
:10003800F4CF0AF0F6CF0BF0F7CF0CF0F8CF0DF0B5
:10004800F5CF0EF0F2A416D0080ED624D66E000E08
:10005800D720D76E0F4A102A210E0F180AE14E0E2C
:100068001018D8A406D0AA0E816E000E106E000ECD
:100078000F6EF2940EC0F5FF0DC0F8FF0CC0F7FF2D
:100088000BC0F6FF0AC0F4FF09C0F3FF08C0DAFF8F
:1000980007C0D9FF06C0E2FF05C0E1FF04C0EAFFC0
:1000A80003C0E9FF02C0FBFF01C0FAFF1192110073
:1000B800106A0F6A11901192000163EF00F0FFD7E8
:00000001FF
